{
  "_format": "hh-sol-artifact-1",
  "contractName": "CharityProjectDonation",
  "sourceName": "contracts/ChairtyProjectDonation.sol",
  "abi": [
    {
      "inputs": [
        {
          "internalType": "string",
          "name": "_projectId",
          "type": "string"
        }
      ],
      "stateMutability": "nonpayable",
      "type": "constructor"
    },
    {
      "inputs": [
        {
          "internalType": "address",
          "name": "owner",
          "type": "address"
        }
      ],
      "name": "OwnableInvalidOwner",
      "type": "error"
    },
    {
      "inputs": [
        {
          "internalType": "address",
          "name": "account",
          "type": "address"
        }
      ],
      "name": "OwnableUnauthorizedAccount",
      "type": "error"
    },
    {
      "inputs": [],
      "name": "ReentrancyGuardReentrantCall",
      "type": "error"
    },
    {
      "anonymous": false,
      "inputs": [
        {
          "indexed": true,
          "internalType": "address",
          "name": "donor",
          "type": "address"
        },
        {
          "indexed": false,
          "internalType": "uint256",
          "name": "amount",
          "type": "uint256"
        },
        {
          "indexed": false,
          "internalType": "string",
          "name": "message",
          "type": "string"
        }
      ],
      "name": "DonationReceived",
      "type": "event"
    },
    {
      "anonymous": false,
      "inputs": [
        {
          "indexed": true,
          "internalType": "address",
          "name": "beneficiary",
          "type": "address"
        },
        {
          "indexed": false,
          "internalType": "uint256",
          "name": "amount",
          "type": "uint256"
        },
        {
          "indexed": false,
          "internalType": "string",
          "name": "purpose",
          "type": "string"
        }
      ],
      "name": "FundsWithdrawn",
      "type": "event"
    },
    {
      "anonymous": false,
      "inputs": [
        {
          "indexed": true,
          "internalType": "address",
          "name": "previousOwner",
          "type": "address"
        },
        {
          "indexed": true,
          "internalType": "address",
          "name": "newOwner",
          "type": "address"
        }
      ],
      "name": "OwnershipTransferred",
      "type": "event"
    },
    {
      "inputs": [
        {
          "internalType": "string",
          "name": "message",
          "type": "string"
        }
      ],
      "name": "donate",
      "outputs": [],
      "stateMutability": "payable",
      "type": "function"
    },
    {
      "inputs": [
        {
          "internalType": "address",
          "name": "",
          "type": "address"
        }
      ],
      "name": "donorContributions",
      "outputs": [
        {
          "internalType": "uint256",
          "name": "",
          "type": "uint256"
        }
      ],
      "stateMutability": "view",
      "type": "function"
    },
    {
      "inputs": [],
      "name": "owner",
      "outputs": [
        {
          "internalType": "address",
          "name": "",
          "type": "address"
        }
      ],
      "stateMutability": "view",
      "type": "function"
    },
    {
      "inputs": [],
      "name": "projectId",
      "outputs": [
        {
          "internalType": "string",
          "name": "",
          "type": "string"
        }
      ],
      "stateMutability": "view",
      "type": "function"
    },
    {
      "inputs": [],
      "name": "renounceOwnership",
      "outputs": [],
      "stateMutability": "nonpayable",
      "type": "function"
    },
    {
      "inputs": [],
      "name": "totalFundsRaised",
      "outputs": [
        {
          "internalType": "uint256",
          "name": "",
          "type": "uint256"
        }
      ],
      "stateMutability": "view",
      "type": "function"
    },
    {
      "inputs": [
        {
          "internalType": "address",
          "name": "newOwner",
          "type": "address"
        }
      ],
      "name": "transferOwnership",
      "outputs": [],
      "stateMutability": "nonpayable",
      "type": "function"
    },
    {
      "inputs": [],
      "name": "uniqueDonorCount",
      "outputs": [
        {
          "internalType": "uint256",
          "name": "",
          "type": "uint256"
        }
      ],
      "stateMutability": "view",
      "type": "function"
    },
    {
      "inputs": [
        {
          "internalType": "uint256",
          "name": "amount",
          "type": "uint256"
        },
        {
          "internalType": "string",
          "name": "purpose",
          "type": "string"
        }
      ],
      "name": "withdrawFunds",
      "outputs": [],
      "stateMutability": "nonpayable",
      "type": "function"
    },
    {
      "stateMutability": "payable",
      "type": "receive"
    }
  ],
  "bytecode": "0x608060405234801561001057600080fd5b506040516115a73803806115a78339818101604052810190610032919061030e565b336001600081905550600073ffffffffffffffffffffffffffffffffffffffff168173ffffffffffffffffffffffffffffffffffffffff16036100ad5760006040517f1e4fbdf70000000000000000000000000000000000000000000000000000000081526004016100a49190610398565b60405180910390fd5b6100bc816100d360201b60201c565b5080600290816100cc91906105d4565b50506106a6565b6000600160009054906101000a900473ffffffffffffffffffffffffffffffffffffffff16905081600160006101000a81548173ffffffffffffffffffffffffffffffffffffffff021916908373ffffffffffffffffffffffffffffffffffffffff1602179055508173ffffffffffffffffffffffffffffffffffffffff168173ffffffffffffffffffffffffffffffffffffffff167f8be0079c531659141344cd1fd0a4f28419497f9722a3daafe3b4186f6b6457e060405160405180910390a35050565b6000604051905090565b600080fd5b600080fd5b600080fd5b600080fd5b6000601f19601f8301169050919050565b7f4e487b7100000000000000000000000000000000000000000000000000000000600052604160045260246000fd5b610200826101b7565b810181811067ffffffffffffffff8211171561021f5761021e6101c8565b5b80604052505050565b6000610232610199565b905061023e82826101f7565b919050565b600067ffffffffffffffff82111561025e5761025d6101c8565b5b610267826101b7565b9050602081019050919050565b60005b83811015610292578082015181840152602081019050610277565b60008484015250505050565b60006102b16102ac84610243565b610228565b9050828152602081018484840111156102cd576102cc6101b2565b5b6102d8848285610274565b509392505050565b600082601f8301126102f5576102f46101ad565b5b815161030584826020860161029e565b91505092915050565b600060208284031215610324576103236101a3565b5b600082015167ffffffffffffffff811115610342576103416101a8565b5b61034e848285016102e0565b91505092915050565b600073ffffffffffffffffffffffffffffffffffffffff82169050919050565b600061038282610357565b9050919050565b61039281610377565b82525050565b60006020820190506103ad6000830184610389565b92915050565b600081519050919050565b7f4e487b7100000000000000000000000000000000000000000000000000000000600052602260045260246000fd5b6000600282049050600182168061040557607f821691505b602082108103610418576104176103be565b5b50919050565b60008190508160005260206000209050919050565b60006020601f8301049050919050565b600082821b905092915050565b6000600883026104807fffffffffffffffffffffffffffffffffffffffffffffffffffffffffffffffff82610443565b61048a8683610443565b95508019841693508086168417925050509392505050565b6000819050919050565b6000819050919050565b60006104d16104cc6104c7846104a2565b6104ac565b6104a2565b9050919050565b6000819050919050565b6104eb836104b6565b6104ff6104f7826104d8565b848454610450565b825550505050565b600090565b610514610507565b61051f8184846104e2565b505050565b5b818110156105435761053860008261050c565b600181019050610525565b5050565b601f821115610588576105598161041e565b61056284610433565b81016020851015610571578190505b61058561057d85610433565b830182610524565b50505b505050565b600082821c905092915050565b60006105ab6000198460080261058d565b1980831691505092915050565b60006105c4838361059a565b9150826002028217905092915050565b6105dd826103b3565b67ffffffffffffffff8111156105f6576105f56101c8565b5b61060082546103ed565b61060b828285610547565b600060209050601f83116001811461063e576000841561062c578287015190505b61063685826105b8565b86555061069e565b601f19841661064c8661041e565b60005b828110156106745784890151825560018201915060208501945060208101905061064f565b86831015610691578489015161068d601f89168261059a565b8355505b6001600288020188555050505b505050505050565b610ef2806106b56000396000f3fe60806040526004361061008a5760003560e01c80638da5cb5b116100595780638da5cb5b14610146578063b5aebc8014610171578063f2fde38b1461018d578063f4374aea146101b6578063ffe4560d146101f3576100a9565b80633fafa127146100ae578063427c0c7f146100d9578063603090bc14610104578063715018a61461012f576100a9565b366100a9576100a76040518060200160405280600081525061021c565b005b600080fd5b3480156100ba57600080fd5b506100c3610381565b6040516100d091906108ea565b60405180910390f35b3480156100e557600080fd5b506100ee61040f565b6040516100fb9190610925565b60405180910390f35b34801561011057600080fd5b50610119610415565b6040516101269190610925565b60405180910390f35b34801561013b57600080fd5b5061014461041b565b005b34801561015257600080fd5b5061015b61042f565b6040516101689190610981565b60405180910390f35b61018b60048036038101906101869190610a0b565b610459565b005b34801561019957600080fd5b506101b460048036038101906101af9190610a84565b6104aa565b005b3480156101c257600080fd5b506101dd60048036038101906101d89190610a84565b610530565b6040516101ea9190610925565b60405180910390f35b3480156101ff57600080fd5b5061021a60048036038101906102159190610add565b610548565b005b6000341161025f576040517f08c379a000000000000000000000000000000000000000000000000000000000815260040161025690610baf565b60405180910390fd5b34600360008282546102719190610bfe565b925050819055506000600560003373ffffffffffffffffffffffffffffffffffffffff1673ffffffffffffffffffffffffffffffffffffffff16815260200190815260200160002054036102d857600460008154809291906102d290610c32565b91905055505b34600560003373ffffffffffffffffffffffffffffffffffffffff1673ffffffffffffffffffffffffffffffffffffffff16815260200190815260200160002060008282546103279190610bfe565b925050819055503373ffffffffffffffffffffffffffffffffffffffff167ffa5658cbb5d60363acba0d281bddcf21cc9e7ea6053267531b4cdc36d5df7a8a3483604051610376929190610c7a565b60405180910390a250565b6002805461038e90610cd9565b80601f01602080910402602001604051908101604052809291908181526020018280546103ba90610cd9565b80156104075780601f106103dc57610100808354040283529160200191610407565b820191906000526020600020905b8154815290600101906020018083116103ea57829003601f168201915b505050505081565b60035481565b60045481565b6104236106b5565b61042d600061073c565b565b6000600160009054906101000a900473ffffffffffffffffffffffffffffffffffffffff16905090565b6104a682828080601f016020809104026020016040519081016040528093929190818152602001838380828437600081840152601f19601f8201169050808301925050505050505061021c565b5050565b6104b26106b5565b600073ffffffffffffffffffffffffffffffffffffffff168173ffffffffffffffffffffffffffffffffffffffff16036105245760006040517f1e4fbdf700000000000000000000000000000000000000000000000000000000815260040161051b9190610981565b60405180910390fd5b61052d8161073c565b50565b60056020528060005260406000206000915090505481565b6105506106b5565b610558610802565b4783111561059b576040517f08c379a000000000000000000000000000000000000000000000000000000000815260040161059290610d7c565b60405180910390fd5b60006105a561042f565b73ffffffffffffffffffffffffffffffffffffffff16846040516105c890610dcd565b60006040518083038185875af1925050503d8060008114610605576040519150601f19603f3d011682016040523d82523d6000602084013e61060a565b606091505b505090508061064e576040517f08c379a000000000000000000000000000000000000000000000000000000000815260040161064590610e2e565b60405180910390fd5b61065661042f565b73ffffffffffffffffffffffffffffffffffffffff167fd30b68ba794ba733ec10c7ddce3e044482efdaa4c2e6b3d233800535afe5139b85858560405161069f93929190610e8a565b60405180910390a2506106b0610848565b505050565b6106bd610852565b73ffffffffffffffffffffffffffffffffffffffff166106db61042f565b73ffffffffffffffffffffffffffffffffffffffff161461073a576106fe610852565b6040517f118cdaa70000000000000000000000000000000000000000000000000000000081526004016107319190610981565b60405180910390fd5b565b6000600160009054906101000a900473ffffffffffffffffffffffffffffffffffffffff16905081600160006101000a81548173ffffffffffffffffffffffffffffffffffffffff021916908373ffffffffffffffffffffffffffffffffffffffff1602179055508173ffffffffffffffffffffffffffffffffffffffff168173ffffffffffffffffffffffffffffffffffffffff167f8be0079c531659141344cd1fd0a4f28419497f9722a3daafe3b4186f6b6457e060405160405180910390a35050565b60026000540361083e576040517f3ee5aeb500000000000000000000000000000000000000000000000000000000815260040160405180910390fd5b6002600081905550565b6001600081905550565b600033905090565b600081519050919050565b600082825260208201905092915050565b60005b83811015610894578082015181840152602081019050610879565b60008484015250505050565b6000601f19601f8301169050919050565b60006108bc8261085a565b6108c68185610865565b93506108d6818560208601610876565b6108df816108a0565b840191505092915050565b6000602082019050818103600083015261090481846108b1565b905092915050565b6000819050919050565b61091f8161090c565b82525050565b600060208201905061093a6000830184610916565b92915050565b600073ffffffffffffffffffffffffffffffffffffffff82169050919050565b600061096b82610940565b9050919050565b61097b81610960565b82525050565b60006020820190506109966000830184610972565b92915050565b600080fd5b600080fd5b600080fd5b600080fd5b600080fd5b60008083601f8401126109cb576109ca6109a6565b5b8235905067ffffffffffffffff8111156109e8576109e76109ab565b5b602083019150836001820283011115610a0457610a036109b0565b5b9250929050565b60008060208385031215610a2257610a2161099c565b5b600083013567ffffffffffffffff811115610a4057610a3f6109a1565b5b610a4c858286016109b5565b92509250509250929050565b610a6181610960565b8114610a6c57600080fd5b50565b600081359050610a7e81610a58565b92915050565b600060208284031215610a9a57610a9961099c565b5b6000610aa884828501610a6f565b91505092915050565b610aba8161090c565b8114610ac557600080fd5b50565b600081359050610ad781610ab1565b92915050565b600080600060408486031215610af657610af561099c565b5b6000610b0486828701610ac8565b935050602084013567ffffffffffffffff811115610b2557610b246109a1565b5b610b31868287016109b5565b92509250509250925092565b7f446f6e6174696f6e20616d6f756e74206d75737420626520677265617465722060008201527f7468616e20300000000000000000000000000000000000000000000000000000602082015250565b6000610b99602683610865565b9150610ba482610b3d565b604082019050919050565b60006020820190508181036000830152610bc881610b8c565b9050919050565b7f4e487b7100000000000000000000000000000000000000000000000000000000600052601160045260246000fd5b6000610c098261090c565b9150610c148361090c565b9250828201905080821115610c2c57610c2b610bcf565b5b92915050565b6000610c3d8261090c565b91507fffffffffffffffffffffffffffffffffffffffffffffffffffffffffffffffff8203610c6f57610c6e610bcf565b5b600182019050919050565b6000604082019050610c8f6000830185610916565b8181036020830152610ca181846108b1565b90509392505050565b7f4e487b7100000000000000000000000000000000000000000000000000000000600052602260045260246000fd5b60006002820490506001821680610cf157607f821691505b602082108103610d0457610d03610caa565b5b50919050565b7f52657175657374656420616d6f756e74206578636565647320617661696c616260008201527f6c652066756e6473000000000000000000000000000000000000000000000000602082015250565b6000610d66602883610865565b9150610d7182610d0a565b604082019050919050565b60006020820190508181036000830152610d9581610d59565b9050919050565b600081905092915050565b50565b6000610db7600083610d9c565b9150610dc282610da7565b600082019050919050565b6000610dd882610daa565b9150819050919050565b7f46756e64207472616e73666572206661696c6564000000000000000000000000600082015250565b6000610e18601483610865565b9150610e2382610de2565b602082019050919050565b60006020820190508181036000830152610e4781610e0b565b9050919050565b82818337600083830152505050565b6000610e698385610865565b9350610e76838584610e4e565b610e7f836108a0565b840190509392505050565b6000604082019050610e9f6000830186610916565b8181036020830152610eb2818486610e5d565b905094935050505056fea26469706673582212208125f290598ef3f2225620665f5b214ad1ab4c61990af4ff66eb339e291ee6d664736f6c634300081b0033",
  "linkReferences": {},
  "deployedLinkReferences": {}
}